:400000000080002011000000C5000000C500000008B5074A136843F020031360054B1A6803F53F5302331A6000F0BCFA00F052F8E8460040FA46004010B5054C237833B9BD
:40004000044B13B10448AFF300800123237010BD8881FF1F0000000070150000084B10B51BB108480849AFF300800848036803B910BD074B002BFBD0BDE81040184700BF89
:4000800000000000701500008C81FF1F0881FF1F0000000008B562B600F0CAFD4FF4FA7001F08AF801F0FCF9012804D101F0FEF900F046FD05E0002001F0F8F9002000F047
:4000C000D3FAFEE708B501F00FFA03680C2B00D1FEE7FEE708B5104E104D16E029686B68AC68002204E051F8040B43F8040B0432A242F8D1E868002203E0002143F8041B19
:4001000004328242F9D11035013E002EE6D101F0F1F9FFF7BFFFFEE701000000C819000008B5124A124B1A60124A136843F40073136000230AE0032B03D80F4A52F823106C
:4001400000E00E490E4A42F8231001332F2BF2D90C4B1A780C4B1A70094A0C4B1A6000F0B1F800220A4B1A6008BD00BF0004FA050CED00E014ED00E000000000C5000000AC
:400180000080FF1FBC7600400481FF1F08ED00E00081FF1FFEE700BFF0B40022174611E050F82760F3B226F0FF0608E001EB420511F812406D78A5550132013BDBB2002B55
:4001C000F4D10137112FEBD9F0BC7047064B1B78DBB203F00701054A11701B09013213704422034B1A707047CF0100496E5800407658004008B50A46002101F0ACF908BDDA
:4002000008B501F09DF908BD08B501F099F908BD38B51925234B1D80182202331A70022203F27E231A7008224FF040231A70032103F5007319701C4B1B78DBB21B490B7069
:400240001B4B1A8041F25122023B1A8000240CE0184B1B7803F0010343EA440404F003044FF4F07001F030F9013D0DB1032CEFD115B90320FFF78EFF0F4B4FF480721A804F
:4002800007221A7000220D490A704820023108701A700222033B1A70094A137843F00103137038BD8040004008010049A146004022420040254200400440004006400040B5
:4002C000A243004038B572B62A4A137843F02003137000240CE0284963001A1952000A4423445B00C8589188FFF784FF0134E4B2072CF0D9204C04F1300004F17801FFF705
:400300004BFF1E4A137843F0020313701032137843F0020313701A4D2B7843F040032B70A2F58632513A137843F010031370154804F582610822FFF763FF134804F5836101
:400340000A22FFF75DFF114A137843F0080313700F4C61232370FFF75BFF8123237001220C4B1A70FFF732FF0B4829460E22FFF74BFF38BDE8460040741500000350014082
:40038000A0430040F251004010510040224300400048004004000840B0430040002306E0421812F8012C13449BB2013989B20029F6D1584280B27047004700BF08B58022BF
:4003C000024B1A7000F0F0FE08BD00BFFA4600402DE9F04182B00C46164602AF27F8022D01230B7048701546A270130ACB7002F1040808461FFA88F1FFF7D0FF04F808005A
:40040000731DC0F30720E054063517236355F11D204689B23A46962300F032FD02B0BDE8F08100BF70B505460E461446084B984203D010B1002000F0B5FE002004E0013C80
:40044000AB191B5D1844C0B2002CF8D170BD00BF0080004070B5C0B00E46C0F30745C0F3072120F0FF04002304E01A5D0DF8032001339BB2FF2BF8D9C3B20DF8036028468E
:400480006A4600F05BFE00F0B7FE40B070BD00BF08B501380B2867D8DFE800F0060E161E262E3E36464E565E4942090201F57F3101F5707101225CE04942090201F57F319D
:4004C00001F2C131042254E04942090201F57F3101F2C53102224CE04942090201F57F3101F2C931042244E04942090201F57F3101F5747101223CE04942090201F57F3143
:4005000001F2D131012234E04942090201F57F3101F2D63102222CE04942090201F57F3101F2D231022224E04942090201F57F3101F5757102221CE04942090201F57F315B
:4005400001F57671042214E04942090201F57F3101F5777101220CE04942090201F57F3101F57871042204E0002000F01BFE02220021012A02D10878C0B200E00020022AAC
:4005800003D10B78487843EA0020042A09D10B78487843EA0023887843EA0043C87843EA006008BD08B50A4B1B7803F0C003802B0CD10021064B19700220FFF769FF28B103
:4005C00002200021FFF764FFFFF7F6FE08BD00BFFA460040F8B5064603203146FFF758FF0130070204203146FFF752FF074403203146FFF74DFF013000020024254608E0A4
:4006000003785A1ED2B2FD2A00D801252344DCB20130B842F4D303203146FFF739FF01300002C0080F4B9F4201D0FF0808E04FF4004705E000F190431B782344DCB201308D
:40064000B842F7D36442E4B201203146FFF720FF844202D11DB90620F8BD0620F8BD0020F8BD00BFC0FF030038B50546022803D10022114B1A701CE0FFF7ACFF78B115E059
:400680006042000200F57F3000F57470AC4214BF00210121FFF7DEFE0134E4B200E00024002CEDD08022044B1A7002E00022024B1A7000F079FD38BDFA4600402DE9F04F05
:4006C000ADF51F7D054600F0B3FC10B1002000F069FD00F0C9FB62B64FF0000A57460A24D0460DB9FF2300E02B4652A84FF496710DF2762200F0D6FB0DB1013CE4B20CB182
:400700000028EED1002840F01182BDF87632062B26D99DF84821012A24D19DF84B819DF84A2142EA0828414608F107029A421BD8B2F5967F1AD84A1D52AB9E5C0A1D9A5CFE
:4007400042EA062606315B5C172B11D108F1040152A889B2FFF722FEB0420BD100260AE0042608E0042606E0032604E0032602E0042600E00826002E40F083819DF84C91A2
:400780009DF84921A2F131030A2B00F25281DFE813F00B001C0050014400B0005001B600CB004400DD004201002F00F06C81B8F1000F40F06B810020FFF70CFFB0FA80F0F2
:4007C00040098DF84C010122A9E1002F00F06181B8F1010F40F06081B9F1030F00F25F81C14B1B681B68C3F30742914502D1C3F3072305E0914501D9002301E04FF480736F
:400800008DF84C311B0A8DF84D31FF238DF84E3100238DF84F31042281E1342A15D1002F00F04081B8F1030F40F03F81A9F14003DBB23F2B02D84FF0100A01E04FF4907AB4
:4008400007A80021524600F086FE002F00F03081B8F1020F40F22F8107AB03EB0A000DF24F11A8F1030200F06BFEC244AAF1030A1FFA8AFAA9F14003DBB23F2B05D800F044
:4008800067FC80234FF0100803E04FF480734FF49078C24540F012819DF84EA19DF84D2142EA0A2A9A4500D30A26002E40F00B81B9F13F0F0FD80AEB092292B28A4B1B685F
:4008C0001968C1F30F2311F0FF0F01D001339BB29A42C0F0FA804846514607AA434600F0B1FB00B10A2600F087FC4FF0000A524615E1002F40F01881042600220FE1002FA1
:4009000000F0E8800AEB0803B3F5967F00F2E58007AB03EB0A0053A9424600F011FEC2441FFA8AFA0022FAE0B8F1000F40F0D88004AB6E4A92E8030083E8030053AA82E886
:4009400003004FF0000A01270822E8E0002F00F0D580B8F1030F40F0D4809DF84EB19DF84D3143EA0B2BA9F14003DBB23F2B10D84FEA0B11BBF17F0F01D8334600E00A23AA
:40098000002B40F0C1805A481022FFF74BFD019011E00BEB09210902BBF1FF0F01D8334600E00A23002B40F0B28000204FF48072FFF738FD0190B9F13F0F0FD809F5103206
:4009C0000BEB02225201002306E0995C01980144C9B2019101339BB21F2BF6D9B9F1030F13D1BBF1FF0F10D105200021FFF750FD019B181A00F0FF0906200021FFF748FDFB
:400A0000C0EB090000F0FF030193019B5B428DF84C31012283E00020FFF7DCFD10B98022344B1A7000F028FA00F0BEFB0426002275E0314B1B68002B6CD0002F6DD08DF8A5
:400A40000820ADF80A8053AA0392002104910591069202A804A99847BDF81420B2F5937F03D3069953AB994205D0069B03B92AB99DF8106053E00E26002250E00E2600225A
:400A80004DE000224BE00426002248E00426002245E00426002242E0042600223FE0042600223CE00426002239E00426002236E00426002233E00426002230E04FF0000ACB
:400AC000032652462BE0002229E04FF0000A0A26524624E00426002221E0032600221EE0042600221BE000BF0C81FF1F9819000000800040FA460040A481FF1F0426002223
:400B00000DE0042600220AE01E46002207E01E46002204E00526002201E005260022304652A9FFF755FC01E04FF0000A002D3FF4D8AD002F7FF4D5AD0DF51F7DBDE8F08F93
:400B400038B50020FFF746FD08B1062400E00024134D2B68002001461A68FFF763FC6B681B78C01AC0B24042C0B2834202D12B681B6813B9002000F015FB0A4B1B7803F0FC
:400B8000C003402B00D024B10020064B1870FFF795FD0020FFF792FDFFF710FC38BD00BF0C81FF1FFA46004008B500200C4900F045FB0020072100F055FB0023094A137078
:400BC0007221094A11702021FF3A11700621613A117047211032117002F5A972137008BDD50D0000A881FF1F8865004010B500F073FC04460B4A137843F020031370FF3A15
:400C0000137843F0100313700122074B1A60074A137843F01003137000F098F9204600F05FFC10BD9865004000E100E09A65004008B5054B5B7823B9FFF7B6FF0122024BB9
:400C40005A70FFF7D3FF08BDA881FF1F10B500F043FC04460B4A137803F0DF03137000F083F9094A137803F0EF0313700122074B1A60074A137803F0EF031370204600F025
:400C80002FFC10BD986500409964004080E100E09A6500400122134B1A60134A9378DBB2D178C9B2127912F0FF0F01D18B4211D00E4AD05CC0B20133DBB23F2B00D9002356
:400CC000094A9370137913F0FF0F06D00022064B1A7102E0064B1878C0B20122054B1A60704700BF80E100E0A881FF1FB881FF1F4A65004000E100E00122134B1A60134AAE
:400D00009378D278DBB2934206D1104B1B7913F0FF0F14D0402013E00C4A9378D278DBB2934205D2094AD3789078181AC0B207E0064AD3789078181A4030C0B200E0002022
:400D40000122034B1A60704780E100E0A881FF1F00E100E008B500F0BFFB0B4B1A7842F001021A701A7802F0FE021A7000F0B8FB0121064B1960064B00229A70DA701A718B
:400D80005A71044B196008BD9A65004080E100E0A881FF1F00E100E0034B1B7813F0040FFAD1024B187070476A6500404965004008B500F091FB064B1A7842F001021A702D
:400DC0001A7802F0FE021A7000F08AFB08BD00BF996500401C4B1B78DBB213F01E0F05D01A4803F01E0201780A43027003F0200303F0FF022BB3164B1978C9B2154B1B782D
:400E0000DBB21548C154154B1B7813F0FF0F02D00121134B19700F490B780133DBB20B700B78DBB23F2B02D900210A4B1970094B1B780C490978DBB28B4202D10121074B0B
:400E40001970002AC6D1704769640040A881FF1F4A650040AB81FF1FB881FF1FAC81FF1FAD81FF1FAA81FF1F08B5FFF7E1FEFFF771FFFFF79DFF08BD08B5FFF7E7FE08BD01
:400E8000F8B506460D461746FFF764FF002404E0305DFFF781FF0134A4B2AC42F8D33D800020F8BD2DE9F0470746894690461D46002414E0FFF720FF60B1FFF71DFF044613
:400EC000192000F079F9FFF717FF8442F5D34FF0000A0BE0012000F06FF90134A4B205EB85035B009C42E5DB4FF0050A0025A8F8005023E0FFF700FF86B2B8F8003033442A
:400F00009BB2A8F800304B4508D313E0FFF7C2FE78550135ADB20134A4B200E00024B442F4D37B1913F8013C172B07D0052000F043F903E09B1BA8F8003003E0FFF7DCFE70
:400F40000028D7D15046BDE8F08700BF054A137843F0010313701032137843F001031370704700BFA2430040054A137803F0FE0313701032137803F0FE031370704700BF6F
:400F8000A243004010B500F085F900F033FAD0B900F072FA0446072812D102E0012000F021F90A4B1B7813F0020FF7D0074B1B7813F0020F04D0054B1B789B0800D1002463
:400FC00000F03EFA00E00424204610BD2247004010B500F05FF900F00DFA10BB012000F0EBF9072818D11048022100F065F902280AD102E0012000F0F5F80C4B1B7813F06E
:40100000020FF7D0002409E0084B1B7813F0020FE9D04FF0FF3401E04FF0FF3400F010FA00E00424204610BDF881FF1F2247004008B5FFF7A7FF034610B9FFF7C9FF03466C
:40104000184608BD2DE9F041441FE4B23A2C01D9002500E0012510F0800F00D00125412800D901253F2803D8B1F5807F06D808E0802900D90125102B02D102E0012500E06A
:40108000012502B90125002D50D1984616460F46044600F0AFF9002847D1204639463246434600F023F9064607283AD102E0012000F098F81F4B1B7813F0020FF7D01D4BEF
:4010C0001B7813F0020F06D01A4B1B789B0805D04FF0FF3603E04FF0FF3600E02E4606BB154B204639461A785B7800F03FF9072804D0064615E0012000F074F80D4B1B78A5
:4011000013F0020FF7D00B4B1B7813F0020F06D0084B1B789B0804D04FF0FF3601E04FF0FF3600F08DF9354600E004252846BDE8F08100BF22470040F881FF1F08B53F283A
:4011400001D9102301E04FF48073FFF77BFF08BD08B500F0C1F90F4A137843F0080313701032137843F008031370C8220A4B1A700A4A137843F0100313701032137843F00B
:4011800010031370064B1B7813F0200FFAD000F0A7F908BDA043004001470040AC4300400047004001BE7047024A137843F0010313707047F646004010B5044605E0084B82
:4011C000186800F081F9A4F50044B4F5004FF6D8034B586800FB04F000F076F910BD00BF1481FF1F08B5034B1B7A03FB00F000F06BF908BD1481FF1F08B500F06DF900BF9B
:4012000000BF00BF00BF00BF00BF00BF00BF00BF00BF00BF00BF00BF00BF00BF00BF064A13889BB243F0040313801388BFF36F8F00F056F908BD00BF0048004070B5044673
:401240000E46074B1D681F2802D90020FFF7AAFF04F01F04103455F8240045F8246070BD08ED00E038B504460D46072902D90020FFF798FF1F2C02D90020FFF793FF04F0CF
:401280001F0000F1604000F564406D01EDB2057038BD00BF08B500F01FF9064A137843F0080313701032137843F00803137000F017F908BDA043004070B506460D460024F0
:4012C0000CE00120FFF78EFF064B1B7813F0010FF7D0054B1B7833550134E4B2AC42F3D3204670BD224700402047004070B41D4C247814F0020F2CD01B4CB6252570D525C8
:401300002570022525700234247814F0020F22D1154C2070002404E0165D134D2E700134A4B29C42F8D3B3F5807F16D13F2816D800F5103001EB00214801002305E01A5CF8
:40134000D2B209490A7001339BB21F2BF7D9072006E0042004E0092002E0072000E0072070BC7047224700402047004030B4104C247814F0020F15D00E4CB6252570D82564
:401380002570052525700234247814F0020F0BD1084C2070080A2070C9B2217022702370072002E0042000E0092030BC704700BF22470040204700400C4B1B7813F0020F79
:4013C0000FD00B4BB6221A70E1221A700E221A7002331B7813F0020F05D1054B187007207047042070470920704700BF224700402047004010B500F06FF80F4B1B78A3B978
:4014000001220D4B1A700D4B1B6813F0010F0ED00A4A136823F00103136000BF00BF00BF0122054B5A60002402E0042400E0002400F056F8204610BDB081FF1F04000840DA
:4014400008B500F049F80A4B00221A705B68012B0AD1084A136843F00103136000BF00BF00BF0022024B5A6000F03AF808BD00BFB081FF1F04000840074B1B7813F0020F9C
:4014800008D0064BB6221A70E0221A700D221A7007207047042070472247004020470040014B1878C009704711510040044A137803F0EF03000100F0100018431070704704
:4014C000F0510040000000000230800803D000BF01380046FCD17047EFF3108072B6704780F31088704700BF014B1868704700BF8481FF1F0E4B70B51E460E4C0025E41A86
:40150000A410A54204D056F8253098470135F8E700F048FA084B094C1E46E41AA4100025A54204D056F8253098470135F8E770BDB0190000B0190000B0190000B8190000E5
:4015400010B5431E0A44914204D011F8014B03F8014FF8E710BD03460244934202D003F8011BFAE770470000001B00005B0000000000000000510040100020510040500007
:40158000C0510040100000000140001000140140000800400140000A004C01400002005001402000025200400164004002650040010701404F080140320901404918014072
:4015C00045190140551A01404C1B014002400140014101400142014003430140074C0140034D0140045001400151014009200C40893888728A0FE60201100208060C0708A9
:4016000008400B210C400F4610401118144015181B21200C22132411250126062702282029012A032B042C112E0E2F213230336034403518360F3707380839203A803B826E
:401640003E103F144003460449FF4A074BFF4C404D204EF04F055008580459045A045F01604061A86240632086018A028E028F01900296019E01A401A701A802AC01B001E1
:40168000B202B501B808BE01BF10D418D604D804D904DB04DF01001002210410050406410702084009060A010D020F101202131814411608170819081A401C041D041E0158
:4016C0002304254A2604270429082D802F2834013603372839803DA03E2947045404550456485A0263468740C0F7C23DC4F7CA72CCE0CEF8D040D601D80D09010B0215077C
:4017000019021B0524012507280129042B022C013307360156025712580459045B045F01804081048439851986048706883089068C08903F911F940F951196309A099D075C
:401740009E069F18A039A202A319A410A506A719A801A902AA40AC20B110B23FB307B440B70EBA08BB88BE10C026C105C50BC6CEC80DC9FFCAFFCBFFCEF0CF44D00CD804EB
:40178000D904DA04DF01E6C0EA40EB020198034009820A080B10102011201209130215401714181019181D801F80210422412312272029282B802E202F20310A32403724F2
:4017C00039183A113D20411048044A014B045010522053405C046D406F3C742075207611900492409410958096029710984099049A489D809F2AA004A11AA204A621A729B5
:40180000AA20C00FC20FC4EFCA67CC6BCE27D004D20CD640EA04020804060705080709030B040C071010171019031A081B0C1D0A1E011F042006210322012304240227081D
:4018400028012A062B102C043008321033103407350F3B203E05403141044202440645C0460E480649FF4AFF4BFF4C624DA04EF04F41500C5401580459045A045B045F0114
:401880006640670269106A306B106D106E106F12851486068C068E01911C93029510970C9E039F03A10CA202A311A509A605A710AA01AD10B11FB607BA80D804D904DF011F
:4018C0000010010202100302042005640701080109800A040B800E0210201201131216C8170819081A041B011E021F80211022142308274029042A202BA02E802FA0304047
:4019000031403218374938203A083F0441864204430249024A045140580159285A40903091089240939495A09608984099049A799B029F48A020A182A20CA601A701A910D5
:40194000B580B620C0AFC28BC47FCAD7CCDECE46D00FD204D60FEC043220CC10A620A6208620A620E64009200C806308A480A880C203D802AB04B520EE0200010C0110018A
:401980001C01000300101000000000002000C02020002000000000006910162E0032010143000000F8B500BFF8BC08BC9E4670475D00000021010000F8B500BFF8BC08BC91
:4019C0009E46704739000000D81900000881FF1F800000007800000000000000681500006C1500000000E02EC05D00001800000000366E010000000000000000000000009D
:401A00000000000000000000000000000000000000000000A019000000000000000000000000000000000000000000000000000000000000000000000000000000000000ED
:401A400000000000000000000000000000000000000000002481FF1F00000000000000000000000000000000000000000000000000000000000000000000000000000000A3
:401A80000000000000000000000000000000000000000000000000000000000000000000000000000000000000000000000000000000000000000000000000000000000026
:401AC00000000000000000000000000000000000000000000000000000000000000000000000000000000000000000000000000000000000000000000000000000000000E6
:401B000000800020111B0000013000000130000008B501F095FA00BF10B5054C237833B9044B13B10448AFF300800123237010BD8881FF1F0000000088610000084B10B5B1
:401B40001BB108480849AFF300800848036803B910BD074B002BFBD0BDE81040184700BF00000000886100008C81FF1F0881FF1F0000000008B501F061FC01F0C3FC01F0D0
:401B800065FC0D281DD00A2812D10E480378034400221A7104300C49092203F037FE18B10122084B83F844200022064B1A7008BD044A13781A441071402B02D00133014A98
:401BC000137008BDA481FF1FB461000038B502F083F902F0EFF802F049F9002859D102F0F5F8C04301B2A1F5C8612C4B83FB0123A3EBE17189B20BB213F1640F01DA4FF6AF
:401C00009C710BB2642B00DD64218AB202F11E039BB23C2B12D908B200280FDD0125204B83F84550CCB2284621462A4600F0D6FF042021462A4600F0D1FF38BD3C2B14D9FF
:401C400011F4004F11D052420120154B83F84500D4B221464FF0FF3200F0C0FF042021464FF0FF3200F0BAFF38BD0D4B93F84530012B12D100240A4B83F84540012021464D
:401C8000224600F0ABFF04202146224600F0A6FF38BD4FF6FF7002F09FF838BD56555555A481FF1F38B502F045F902F019F802F0E5F800285AD102F01FF8C04301B2A1F544
:401CC000C8612D4B83FB0123A3EBE17189B20BB213F1640F01DA4FF69C710BB2642B00DD64218AB202F11E039BB23C2B12D908B200280FDD0125214B83F84650CCB2022077
:401D000021462A4600F06AFF032021462A4600F065FF38BD3C2B15D911F4004F12D052420121164B83F84610D4B2022021464FF0FF3200F053FF032021464FF0FF3200F012
:401D40004DFF38BD0D4B93F84630012B12D100240A4B83F8464002202146224600F03EFF03202146224600F039FF38BD4FF6FF7001F0C8FF38BD00BF56555555A481FF1F5B
:401D800008B502F01BFD02F07DFD02F01FFD0D2817D00A280CD10B4B93F847201A44002182F84810012283F8922083F8471008BD044A92F84730D11881F84800013382F890
:401DC000473008BDA481FF1F08B5204801F05AFC012001F0C1FC01F023FB01F039FC02F0DFFC01F00BFD02F033F801F0C7FF02F007F902F073F902F0DFF902F051FA02F011
:401E0000D3FA02F06FFB124801F06EFB114802F055F8114802F080F8104802F025FD104801F030FC00F02EFD0E4801F02BFC00F0C1FF0D4801F026FC01F0D6F8002001F018
:401E40008BFC0A4801F01EFC08BD00BFC0610000751B0000CD1B0000A51C0000811D0000E461000004620000246200004062000038B504460D46002002F05AFA002002F02D
:401E8000F5FA012029464FF0FF3200F0A7FE02202946012200F0A2FE03202946012200F09DFE042029464FF0FF3200F097FE04EB440404EBC4041F4D85FB0435E417C4EBD5
:401EC000E50502F0BDFA044602F01CFA201A801006E002F0B5FA044602F014FA201A8010A84212DA144B93F84530012B0DD0124B93F84630012B08D00F4B93F8933023B17C
:401F00000D4B93F84430012BE3D1012000210A4600F064FE022000210A4600F05FFE032000210A4600F05AFE042000210A4600F055FE38BD67666666A481FF1F38B50446EA
:401F40000D46002002F0F4F9002002F08FFA01202946024600F042FE022029464FF0FF3200F03CFE032029464FF0FF3200F036FE04202946012200F031FE04EB440404EB20
:401F8000C4041F4D85FB0435E417C4EBE50502F0B9F9044602F054FA201A801006E002F0B1F9044602F04CFA201A8010A84212DA144B93F84530012B0DD0124B93F846303E
:401FC000012B08D00F4B93F8933023B10D4B93F84430012BE3D1012000210A4600F0FEFD022000210A4600F0F9FD032000210A4600F0F4FD042000210A4600F0EFFD38BD59
:4020000067666666A481FF1FB44B93F84430012B40F018842DE9F041C0B0B049002381F844301FA8043100F069FC9DF8FC301B2B00F20584DFE813F01C00030426002F00F9
:40204000030403040304030403040304380049005100D500DD000304E900FA000D011E0131018801AD01D8019502CF02E902EF039B4801F007FB1FA801F004FB994801F0B5
:4020800001FBDCE3012001F067FB974801F0FAFA00F094FDD3E3002001F05EFB934801F0F1FA00F08BFDCAE301228C4B83F893208F4801F0EDF9142001F042FA8D4801F0B3
:4020C000E7F98D4801F0DEFAB9E30022834B83F893208A4801F0D6FAB1E305A800F096FE874801F0CFFA874801F0CCFA2FA801F0C9FA854801F0C6FA784D281D01F0C2FA81
:40210000824801F0BFFA824C824E20463146BDF81A2003F02FFB204601F0B4FA7E4801F0B1FA20463146BDF9142003F023FB204601F0A8FA794801F0A5FA20463146BDF988
:40214000162003F017FB204601F09CFA744801F099FA02F0D7F80246724E2046314603F009FB204601F08EFA002002F0E1F86E4801F088FA02F064F902462046314603F000
:40218000F9FA204601F07EFA002002F06FF9674801F078FA95F893003030C0B201F066FA634801F06FFA95F844003030C0B201F05DFA604801F066FA95F845003030C0B201
:4021C00001F054FA5C4801F05DFA95F846003030C0B201F04BFA434801F054FA00F0EEFC2DE300223D4B83F89320544801F04AFA25E3534801F046FA524801F043FA0A20B6
:4022000001F09EF901F094F919E321A803F06EFAC1B20120024600F0E1FC21A803F066FAC1B20420012200F0D9FC08E321A803F05DFAC1B201204FF0FF3200F0CFFC21A8AE
:4022400003F054FAC1B204204FF0FF3200F0C6FCF5E221A803F04AFAC1B20220012200F0BDFC21A803F042FAC1B20320012200F0B5FCE4E221A803F039FAC1B202204FF051
:40228000FF3200F0ABFC21A803F030FAC1B203204FF0FF3200F0A2FCD1E221A803F026FAC1B20120024600F099FC21A803F01EFAC1B20220012200F091FC21A803F016FA17
:4022C000C1B20320012200F089FC21A803F00EFAC1B20420012200F081FCB0E2A481FF1F60620000E0610000746200008C620000A4620000B8620000CC620000E862000091
:40230000046300001463000030630000506300006482FF1F706300007463000094630000B4630000D4630000D8630000F86300001864000038640000586400007864000040
:4023400090640000AC64000021A803F0CFF9C1B201204FF0FF3200F041FC21A803F0C6F9C1B202204FF0FF3200F038FC21A803F0BDF9C1B203204FF0FF3200F02FFC21A8A4
:4023800003F0B4F9C1B204204FF0FF3200F026FC55E204A80DF18301032203F050FA00238DF813309DF8874005A80DF1890103F01DFA04A803F09AF9C5B205A803F096F93F
:4023C00006464C2C01D06C2C03D1B0B22946FFF74FFD522C01D0722C03D1B0B22946FFF7ADFD00F0EBFB2AE204A80DF18101032203F025FA00268DF8136005A80DF1850103
:4024000003F0F4F904A803F071F9C4B205A803F06DF90546304601F08BFF304602F026F8B54244DA012021464FF0FF3200F0D6FB022021464FF0FF3200F0D0FB0320214669
:402440004FF0FF3200F0CAFB042021464FF0FF3200F0C4FB344609E001F054FF044601F0EFFF204444100A2001F06AF840F2EB1303FB05F3AD4A82FB0312DB17C3EB6213C4
:40248000A34253DAAA4B93F84530012B4ED0A84B93F84630012B49D0A54B93F89330002B44D0A34B93F84430012BD5D13EE001202146024600F092FB02202146012200F04F
:4024C0008DFB03202146012200F088FB04202146012200F083FB002409E001F013FF044601F0AEFF204444100A2001F029F840F2EB1303FB05F38D4A82FB0312DB17C3EBFD
:402500006213A34212DD8A4B93F84530012B0DD0874B93F84630012B08D0854B93F8933023B1834B93F84430012BD6D1012000210A4600F053FB022000210A4600F04EFB6F
:40254000032000210A4600F049FB042000210A4600F044FB00F032FB71E1754B93F8923000E00023012BF8D105A8724900F0DEFC9DF85E30012B24D16F4800F089FF142082
:4025800000F0DEFF6D4800F083FF0DF15F0000F07FFF202000F070FF0DF16A0000F078FF202000F069FF1BA800F072FF202000F063FF0DF1770000F06BFF614800F068FFD1
:4025C0003DE1604800F064FF142000F0B9FF5E4800F05EFF33E105A800F018FC5B4800F057FF142000F0ACFF544800F051FF584C20465849BDF81A2003F0BCF8204600F003
:4026000047FF4F4800F044FF19E101A80DF18301032203F014F900268DF8866002A80DF18701032203F00BF98DF88A6002A803F05DF8054605A80DF18B0103F0D7F805A811
:4026400003F054F80746E2E0434B1B68ADF80C301B0C8DF80E304FF000088DF80F8003A803F044F8C4B2404601F062FE404601F0FDFE454544DA012021464FF0FF3200F0AC
:40268000ADFA022021464FF0FF3200F0A7FA032021464FF0FF3200F0A1FA042021464FF0FF3200F09BFA444609E001F02BFE044601F0C6FE204444100A2000F041FF40F214
:4026C000EB1303FB05F3194A82FB0312DB17C3EB6213A3426BDA164B93F84530012B66D0134B93F84630012B61D0114B93F89330002B5CD00E4B93F84430012BD5D156E0D2
:4027000001202146024600F069FA02202146012200F064FA03202146012200F05FFA04202146012200F05AFA002421E07FE0077EA481FF1FEC81FF1FC8640000DC64000051
:40274000E0610000E4640000F8640000086500006482FF1F1C6500002465000001F0D2FD044601F06DFE204444100A2000F0E8FE40F2EB1303FB05F3334A82FB0312DB17B4
:40278000C3EB6213A34212DD304B93F84530012B0DD02E4B93F84630012B08D02B4B93F8933023B1294B93F84430012BD6D1012000210A4600F012FA022000210A4600F031
:4027C0000DFA032000210A4600F008FA042000210A4600F003FA642000F0B2FE1C4B1B68ADF810301B0C8DF8123000238DF8133004A802F07BFFC4B201A802F077FF80B22D
:402800002146FFF735FB642000F09AFE0136BE42FFF61AAF13E0012000210A4600F0DEF9022000210A4600F0D9F9032000210A4600F0D4F9042000210A4600F0CFF940B0DB
:40284000BDE8F081704700BF7FE0077EA481FF1F2465000008B54FF4FA7000F071FE62B6FFF7B2FA064B93F84530012BFAD0044B93F84630012BF5D0FFF7C6FBF2E700BFC2
:40288000A481FF1F08B5164800F002FE4FF4FA7000F056FE134800F0FBFD322000F050FE114800F0F5FD322000F04AFE0F4800F0EFFD322000F044FE0D4800F0E9FD32200D
:4028C00000F03EFE0B4800F0E3FD322000F038FE094800F0DDFD322000F032FE08BD00BF28650000346500003C6500004465000054650000646500009865000070B5A2B09A
:4029000006460C4611A802F071FF204602F076FF8DF8860020468F4902F0A3FFA0B1204602F06CFF251820463A2102F047FF281A01388DF8850020463A2102F03FFF411C17
:4029400001A802F053FF08E001A8214602F04EFF204602F053FF8DF885009DF804301BB901238DF88430EDE001A87B4902F034FF18B902238DF88430E4E001A8774902F0D8
:402980002BFF18B903238DF88430DBE001A8744902F022FF18B904238DF88430D2E001A8704902F019FF18B905238DF88430C9E001A86D4902F010FF18B906238DF88430CC
:4029C000C0E001A86949042202F020FF18B907238DF88430B6E001A8654902F0FDFE18B908238DF88430ADE001A8624902F0F4FE18B909238DF88430A4E001A85E4902F0A1
:402A0000EBFE18B90A238DF884309BE001A85B4902F0E2FE18B90B238DF8843092E001A8574902F0D9FE18B90C238DF8843089E001A8544902F0D0FE18B90D238DF884303E
:402A400080E001A8504902F0C7FE18B90E238DF8843077E001A84D49072202F0D7FE18B910238DF884306DE001A84949072202F0CDFE18B911238DF8843063E001A84549D9
:402A8000072202F0C3FE18B912238DF8843059E001A84149072202F0B9FE18B913238DF884304FE001A83D49072202F0AFFE18B914238DF8843045E001A83949072202F0AB
:402AC000A5FE18B915238DF884303BE001A83549062202F09BFE18B916238DF8843031E001A83149042202F091FE18B917238DF8843027E001A82D4902F06EFE18B918230A
:402B00008DF884301EE001A8294902F065FE18B919238DF8843015E001A82649062202F075FE18B91A238DF884300BE001A8224902F052FE18B91B238DF8843002E0002339
:402B40008DF88430304601A9832202F0FFFD304622B070BDAC650000B4650000BC650000C4650000C8650000D0650000D4650000DC650000E4650000EC650000F8650000AD
:402B8000046600000C6600001C660000246600002C660000346600003C660000446600004C660000546600005C660000646600006C660000746600007C66000008B5054825
:402BC00000F066FC142000F0BBFC034800F060FC08BD00BFE46400008466000010B50C46B2F1FF3F02D0012A02D102E0022200E00322431E032B1FD8DFE803F00209101716
:402C0000104601F05BFB204601F0B4F910BD104601F060FB204601F089FA10BD104601F053FB204601F0F6FA10BD104601F0D2FA204601F00DFA10BD032001F03FFB032085
:402C400001F048FB032001F0C5FA032001F03CFB002001F08FF9002001F068FA002001F0D9FA002001F0F4F910BD00BF2DE9F0410C46054600283ED000293ED0084601F0F8
:402C800079FF06460F46284601F074FF02460B463046394602F0FEF802F0E4F90646002102F0DCFC08B106F100463046364902F037FB80463046314602F032FB07464046F9
:402CC000394602F025FA314902F02AFB804630462F4902F025FB4FF07E5102F019FA0146384602F015FA0146404602F0CDFB02F0DDFC80B202E0002000E0002004B955B3C9
:402D00000CB9002D2ADC002C01DD002D39DC002C00DD35B3002C06DD002D04DAC0F5E16080B2BDE8F0810CB9002D1EDB002C06DA002D04DA00F5E16080B2BDE8F081002C5A
:402D400000DAB5B1002C18DA002D19DDC0F5616080B2BDE8F0810020BDE8F0810020BDE8F0814FF46170BDE8F0814FF4E160BDE8F08140F68C20BDE8F0810020BDE8F081B6
:402D80000020BDE8F08100BF55A2183F0000614455A2983F38B50D461446002100F0A8FE284600F037FF204600F034FF00F016FF38BD00BF08B51E2000211C22FFF7EAFFFD
:402DC0001E2001210022FFF7E5FF1E2002210022FFF7E0FF192020217722FFF7DBFF08BD38B504460D46002100F082FE284600F011FF2046012100F0BBFE002000F036FF78
:402E0000044600F0EBFE204638BD00BF2DE9F04790B0804600242DE01E200321FFF7E0FF82461E200421FFF7DBFF07461E200521FFF7D6FF81461E200621FFF7D1FF0546E6
:402E40001E200721FFF7CCFF06461E200821FFF7C7FF10AB03EBC40347EA0A2723F8407C40EA062023F83E0C45EA092523F83C5C0134E4B2072CCFD9BDF90000BDF9083004
:402E80001844BDF910301844BDF918301844BDF920301844BDF928301844BDF930301844BDF938301844C0F3CF00A8F80000BDF90210BDF90A301944BDF912301944BDF910
:402EC0001A301944BDF922301944BDF92A301944BDF932301944BDF93A301944C1F3CF01A8F80210BDF90420BDF90C301A44BDF914301A44BDF91C301A44BDF924301A44E7
:402F0000BDF92C301A44BDF934301A44BDF93C301344DB10A8F8043000B209B2FFF7A6FEA8F80600404610B0BDE8F08770B59AB004460D46684602F059FC6846284906221A
:402F400002F064FC002842D19DF81230412B22D113A805F11401092202F071FC30238DF84B3000268DF85560AB7F8DF856308DF8576016A805F120010A2202F060FC8DF846
:402F8000626095F82B308DF863308DF8646001238DF84A301BE0134A134603CBCDF84B00CDF84F101B788DF8533016AB07CA03C31A7030228DF8562000238DF857308DF8B2
:402FC00063208DF864308DF84A308DF8003020466946652202F0BAFB20461AB070BD00BFA06600009466000008B5034801F010FC024801F00DFC08BDA8660000BC660000E4
:4030000008B502F077FB03680C2B00D1FEE7FEE708B5094B1A681044084BC31A802B02DC054B186005E002F065FB0C2303604FF0FF32104608BD00BF0C81FF1F0083FF1F6B
:4030400008B5104E104D16E029686B68AC68002204E051F8040B43F8040B0432A242F8D1E868002203E0002143F8041B04328242F9D11035013E002EE6D102F041FBFFF7BE
:40308000E9FBFEE7010000009068000008B5124A124B1A60124A136843F40073136000230AE0032B03D80F4A52F8231000E00E490E4A42F8231001332F2BF2D90C4B1A7840
:4030C0000C4B1A70094A0C4B1A6000F0D1F800220A4B1A6008BD00BF0004FA050CED00E014ED00E0001B0000013000000080FF1FBC7600400481FF1F08ED00E00081FF1F6D
:40310000FEE700BFF0B40022174611E050F82760F3B226F0FF0608E001EB420511F812406D78A5550132013BDBB2002BF4D10137282FEBD9F0BC7047064B1B78DBB203F0ED
:403140000701054A11701B09013213704422034B1A707047CF0100496E5800407658004008B50A46002102F0FCFA08BD38B51722324B1A80182332490B7002310A80314AFA
:4031800013701925023215800232137002321580023213702F2102321180023213704FF49C71023211800232137040F2DF1102321180023213700222234B1A7008224FF093
:4031C00040231A70032103F5007319701F4B1B78DBB21F490B701F4B1A8041F25122023B1A8000240CE01C4B1B7803F0010343EA440404F003044FF4F07001F059FB013D45
:403200000DB1032CEFD115B90320FFF779FF134B4FF480721A8007221A70002210490A704820023108701A700222033B1A700D4A137843F07F03137038BD00BF8040004056
:4032400082400040864000400043004008010049A146004022420040254200400440004006400040A243004008B502F06FFA08BD38B572B63F4A137843F0200313700024CD
:403280000CE03D4963001A1952000A4423445B00C8589188FFF764FF0134E4B2082CF0D900240BE03449A3001A1952000A44906BD16B8022FFF7D8FF0134E4B2002CF1D0EA
:4032C0002E4C04F190410846A431FFF71BFF2C4A137843F0020313701032137843F002031370284D2B7843F040032B70A2F58632513A137843F01003137023482349214484
:403300000A22FFF7B1FF2248224921440A22FFF7ABFF2148214921440822FFF7A5FF2048204921440A22FFF79FFF1F481F4921440822FFF799FF44221D4B1A70C42203F5A1
:40334000B0531A701B4A137843F0080313701A4C61232370FFF70AFF812323700122174B1A70FFF7E9FE164829460E22FFF77CFF38BD00BFE8460040F06600006003000027
:4033800003500140A0430040005100403C120048C051004048120048F251004054120048105100405C1200482251004068120048DB000140224300400048004004000840AA
:4033C000B04300407222074B1A702022013B1A700622613B1A70472210331A70002259331A7070478664004010B501F069FA04460A4A137843F020031370013A137843F071
:40340000100313700832137843F01003137000F07FF8204601F058FA10BD00BF9664004008B5054B1B7823B9FFF7CCFF0122024B1A70FFF7D9FF08BD3882FF1F024B187813
:4034400000F07F00704700BF65640040084B1B78DBB213F0200F06D0064A1078C0B213F01E0F02D17047002070470020704700BF6564004042640040034B1B7813F0040F8C
:40348000FAD1024B187070476D6400404C64004038B5074B1B782BB938BDFFF7EDFF0134A4B201E005460024285D0028F5D138BD3882FF1F014B1B681864704708ED00E035
:4034C0004001C0B2014B1870704700BF00E400E00122014B1A60704700E100E00122014B1A60704780E100E010B50446FFF7F6FF2046FFF7DFFF0720FFF7E2FFFFF7E8FFBA
:4035000010BD00BF0122014B1A60704780E200E0054A137843F0080313701032137843F008031370704700BFA243004001BE7047024A137843F0010313707047F64600401F
:4035400010B5044605E0084B186801F0B1F9A4F50044B4F5004FF6D8034B586800FB04F001F0A6F910BD00BF1081FF1F70B504460E46074B1D681F2802D90020FFF7D6FFD7
:4035800004F01F04103455F8240045F8246070BD08ED00E038B504460D46072902D90020FFF7C4FF1F2C02D90020FFF7BFFF04F01F0000F1604000F564406D01EDB2057055
:4035C00038BD00BF08B506200C49FFF7CFFF06200721FFF7DFFF0023094A13707221094A11702021A2F58072117006215A3A11704721103211704C32137008BDA936000042
:403600003A82FF1F8965004010B501F059F904460C4A137843F020031370A2F58072137843F0100313704022074B1A60074A137843F01003137000F081F8204601F044F9C9
:4036400010BD00BF9965004000E100E09B64004008B5054B5B7823B9FFF7B4FF0122024B5A70FFF7D1FF08BD3A82FF1F034B1B7813F0040FFAD1024B187070476B6400401F
:403680004864004038B5074B5B782BB938BDFFF7EDFF0134A4B201E005460024285D0028F5D138BD3A82FF1F1C4B1B78DBB213F01E0F05D01A4803F01E0201780A430270FB
:4036C00003F0200303F0FF022BB3164B1978C9B2154B1B78DBB21548C154154B1B7813F0FF0F02D00121134B19700F490B780133DBB20B700B78DBB23F2B02D900210A4BC2
:403700001970094B1B780C490978DBB28B4202D10121074B1970002AC6D17047696400403A82FF1F496400403D82FF1FA482FF1F3E82FF1F3F82FF1F3C82FF1F054A137839
:4037400043F0040313701032137843F004031370704700BFA2430040044A137803F0EF03000100F01000184310707047F051004038B50622114B1A7081220E3B1A700822FA
:4037800002331A700F2511331D70002401331C704FF400420A4B1A6028460721FFF7FAFE28460849FFF7E2FE1022074B1A70074B1C70074B1C70074B1C7038BDD6490040F8
:4037C00080E100E025380000E482FF1FEA82FF1FF282FF1FE882FF1F08B501F071F8064A137843F0040313701032137843F00403137001F069F808BDA543004008B5074B7C
:403800001B7823B9FFF7B4FF0122044B1A70FFF7E3FF4FF40042024B1A6008BD4182FF1F00E100E038B5A44B1C78E4B2A34B1B7813F0400F00F0378114F0010F00F01B81C8
:403840009E4B1B78453B052B00F21281DFE813F006008200100110010600DE0004F0DF0504F00A04082C42D1944B1B78DBB2452B35D1934B1B7813F0FF0F10D0914B1B68E8
:403880001B78DBB2904A137004228B4B1A7001228E4B1A704622894B1A702C46EBE08C4B1B7813F0020F0DD08A4A137843F00A0313706022814B1A704FF40042864B1A6057
:4038C0002C46D8E0854A137843F0100313701022834B1A700422023B1A702C46CBE00022754B1A704A22754B1A702C46C3E00A2C2BD1784A137843F0A0031370744B1B7886
:4039000013F0020F14D06D4B1B7813F0080F01D0092300E00A236F4A11780B4313706022664B1A704FF400426B4B1A602C46A2E06A4A137843F0100313701022684B1A7030
:403940000422023B1A702C4695E00020FFF7EEFD2C4690E014F0020F35D15C4B1B78584A1278DBB2934210D2584A1378DBB255490968CB5CDBB254490B7004214E4B1970EF
:4039800013780133DBB2137075E0514B1B7813F0020F0CD04F4A137843F00A0313706022464B1A704FF400424B4B1A6063E04B4A137843F0100313701022494B1A70042209
:4039C000023B1A7057E0424B1B7813F0020F0CD0404A137843F09A0313706022374B1A704FF400423C4B1A6045E03C4A137843F01003137010223A4B1A700422023B1A7010
:403A0000344A137843F09003137034E0354A1378DBB2354908682C490978C9B2C15413780133DBB213701378304A1278DBB2934203D21022204B1A701DE0254B1B7813F056
:403A4000020F0CD0234A137843F00903137060221A4B1A704FF400421F4B1A600BE01F4A137843F0100313700022134B1A7002E00020FFF75BFD14F0200F1CD00F4B1B78B7
:403A800013F0080F01D0012300E00223114A11780B431370114A137803F0EF0313701022064B1A7038BD054B1B7813F0100F02D11022024B1A7038BDD7490040E482FF1F33
:403AC000E982FF1FF482FF1FD8490040E882FF1FF082FF1FEA82FF1F80E100E0D6490040D9490040F282FF1FEC82FF1FF182FF1F1A4B1B78DBB2102B29D1194B1B7813F041
:403B0000080F26D14FF40042164B1A604000C0B229B140F001004922104B1A7002E045220E4B1A70104B1870012201331A700F4B1B7813F0010FFAD00C4B1B7803F00A0366
:403B40000A2B08D11022054B1A700320704702207047012070470020704700BFE482FF1FD949004080E100E0D8490040D7490040164B1B7813F0040F23D04000C0B229B199
:403B800040F001004922124B1A7002E04522104B1A70104B1870122201331A700422023B1A700D4B1B7813F0010FFAD00A4B1B7803F00A030A2B06D11022054B1A700320A7
:403BC0007047022070470020704700BFD9490040E482FF1FD8490040D74900400A4B1B7813F0040F0ED01023074A13700421023A1170064A1370064B1B7813F0210FFAD07F
:403C00000020704702207047D9490040E482FF1FD7490040114B1B7813F0040F1BD0104B18700422013B1A7046220E4B1A700E4B1B7813F0010FFAD00B4B1B7813F0020FBE
:403C400004D16022074B1A70002070476022054B1A70032070470220704700BFD9490040D8490040E482FF1FD7490040114B1B7813F0040F1BD0104B1B78DBB2492B05D110
:403C800000220E4B1A704A220B4B1A700B4B1B7813F0010FFAD00A4B1B78DBB218B11021064A117004E06021034A117000E0002318467047D9490040E482FF1FD74900401C
:403CC000D8490040024A137843F080031370704773640040014B1870704700BF87640040014B1878704700BF67640040014B1880704700BF4C680040014B188880B2704790
:403D00008C680040014B1880704700BF0C68004000F00300044B1A7802F0FC021A701A7810431870704700BF7364004008B501E0FFF7E2FFFFF7D4FF10F0080FF8D108BD16
:403D400008B54FF6FF70FFF7D1FF4FF6FF70FFF7D9FF00F0B5FD084A137843F01003137000F0B2FD0020FFF7D3FFFFF7DFFF0220FFF7B0FF08BD00BF9764004008B5054B54
:403D80001B7823B9FFF7DCFF0122024B1A70FFF799FF08BD4282FF1F024A137843F08003137070477E640040014B1870704700BF8E640040014B1878704700BF6E640040CB
:403DC000014B1880704700BF5A680040014B188880B270479A680040014B1880704700BF1A68004000F00300044B1A7802F0FC021A701A7810431870704700BF7E640040E1
:403E000008B501E0FFF7E2FFFFF7D4FF10F0080FF8D108BD08B54FF6FF70FFF7D1FF4FF6FF70FFF7D9FF00F04BFD084A137843F01003137000F048FD0020FFF7D3FFFFF7F5
:403E4000DFFF0220FFF7B0FF08BD00BF9E64004008B5054B1B7823B9FFF7DCFF0122024B1A70FFF799FF08BD4382FF1F024B1878C0F38010704700BF21510040014B187836
:403E8000C009704721510040014B1B689864704708ED00E04001C0B2014B1870704700BF02E400E00422014B1A60704700E100E00422014B1A60704780E100E010B504465F
:403EC000FFF7F6FF2046FFF7DFFF0720FFF7E2FFFFF7E8FF10BD00BF0422014B1A60704780E200E0014B1B68D864704708ED00E04001C0B2014B1870704700BF03E400E0F6
:403F00000822014B1A60704700E100E00822014B1A60704780E100E010B50446FFF7F6FF2046FFF7DFFF0720FFF7E2FFFFF7E8FF10BD00BF0822014B1A60704780E200E0AD
:403F4000084A137843F0010313701032137843F00103137002F64D32137843F001031370704700BFA3430040014B1880704700BF044F0040014B1880704700BF064F0040EF
:403F8000014B1870704700BF034F004008B5194A137843F0020313700232137803F08F0343F010031370144B1A7802F0CF021A701A7842F030021A701A7802F0F0021A70F4
:403FC0001A7842F00F021A706420FFF7CDFF0020FFF7D0FF0020FFF7D3FF084A137843F00103137002F65E32137843F00103137008BD00BF004F00400B4F0040A343004018
:4040000008B5054B1B7823B9FFF7C0FF0122024B1A70FFF795FF08BD4482FF1F084A137843F0020313701032137843F00203137002F65932137843F001031370704700BFC4
:40404000A3430040014B1880704700BF104F0040014B1880704700BF124F0040014B1870704700BF0F4F004008B5194A137843F0020313700232137803F08F0343F010034E
:404080001370144B1A7802F0CF021A701A7842F030021A701A7802F0F0021A701A7842F00F021A706420FFF7CDFF0020FFF7D0FF0020FFF7D3FF084A137843F002031370B5
:4040C00002F66A32137843F00103137008BD00BF0C4F0040174F0040A343004008B5054B1B7823B9FFF7C0FF0122024B1A70FFF795FF08BD4582FF1F084A137843F0040386
:4041000013701032137843F00403137002F66532137843F001031370704700BFA3430040014B1880704700BF1C4F0040014B1880704700BF1E4F0040014B1870704700BFAC
:404140001B4F004008B5194A137843F0020313700232137803F08F0343F010031370144B1A7802F0CF021A701A7842F030021A701A7802F0F0021A701A7842F00F021A7005
:404180006420FFF7CDFF0020FFF7D0FF0020FFF7D3FF084A137843F00403137002F67632137843F00103137008BD00BF184F0040234F0040A343004008B5054B1B7823B9EE
:4041C000FFF7C0FF0122024B1A70FFF795FF08BD4682FF1F014B1870704700BF72640040084A137843F0080313701032137843F00803137002F67132137843F0010313706F
:40420000704700BFA3430040014B1880704700BF284F0040014B1880704700BF2A4F0040014B1870704700BF274F004008B5194A137843F0020313700232137803F08F0314
:4042400043F010031370144B1A7802F0CF021A701A7842F030021A701A7802F0F0021A701A7842F00F021A706420FFF7CDFF0020FFF7D0FF0020FFF7D3FF084A137843F035
:404280000803137002F68232137843F00103137008BD00BF244F00402F4F0040A343004008B5054B1B7823B9FFF7C0FF0122024B1A70FFF795FF08BD4782FF1F014B18702F
:4042C000704700BF7C640040014B1870704700BF7A650040014B1870704700BF7D64004008B51022054B1A6004200549FFF73EF904200721FFF74EF908BD00BF80E100E0AE
:40430000DD43000010B51024064B1C6000F03EF9A0F5004000B2044B1B68044A1460184410BD00BF80E100E04C82FF1F00E100E038B505461024054B1C604FF4004000F0D4
:404340001FF9034B1D60034B1C6038BD80E100E04C82FF1F00E100E0024B187800F00F00704700BF6465004040F00700014B1870704700BF8465004008B50F20FFF7F4FFD3
:40438000FFF7EAFF00F09CFA054A137843F01003137000F099FA1022024B1A6008BD00BF9465004000E100E008B500F041F94FF4004000F0E5F80022064B1A60064B1B78F3
:4043C00023B9FFF78DFF0122034B1A70FFF7D4FF08BD00BF4C82FF1F4882FF1F0D4B1B78DBB213F0010F06D00B490A6802F5FF427F320A6007E013F0020F04D006490A6839
:40440000A2F500420A6013F0040F02D00022024B1A607047646500404C82FF1F08B52022054B1A6005200549FFF7A0F805200721FFF7B0F808BD00BF80E100E019450000E4
:4044400010B52024064B1C6000F01AF9A0F5004000B2044B1B68044A1460184410BD00BF80E100E05482FF1F00E100E038B505462024054B1C604FF4004000F0FBF8034B6E
:404480001D60034B1C6038BD80E100E05482FF1F00E100E0024B187800F00F00704700BF6F64004040F00700014B1870704700BF8F64004008B50F20FFF7F4FFFFF7EAFFFD
:4044C00000F0FEF9054A137843F01003137000F0FBF92022024B1A6008BD00BF9F64004000E100E008B500F01DF94FF4004000F0C1F80022064B1A60064B1B7823B9FFF72B
:404500008DFF0122034B1A70FFF7D4FF08BD00BF5482FF1F5082FF1F0D4B1B78DBB213F0010F06D00B490A6802F5FF427F320A6007E013F0020F04D006490A68A2F50042E0
:404540000A6013F0040F02D00022024B1A6070476F6400405482FF1F024A137843F080031370704774650040014B1870704700BF87650040014B1878704700BF676500408E
:40458000014B1880704700BF0C6A0040024B1B78024B188880B27047066500408C6A0040014B188880B270478C6A0040014B1880704700BF4C6A0040014B1880704700BF9F
:4045C0006C6A004008B501E0FFF7EAFFFFF7D2FF10F0400FF8D108BD08B5134B1A7802F0F8021A701A7802F0FC021A70FFF7EAFF4FF40040FFF7DAFF4FF40040FFF7C0FFEC
:404600000020FFF7B1FFFFF7B5FF4FF40040FFF7D3FF00F055F9054A137843F01003137000F052F908BD00BF746500409765004008B5054B1B7823B9FFF7CEFF0122024B1B
:404640001A70FFF789FF08BD5882FF1F024A137843F080031370704771640040014B1870704700BF81640040014B1878704700BF61640040014B1880704700BF00680040D1
:40468000024B1B78024B188880B270470064004080680040014B188880B2704780680040014B1880704700BF40680040014B1880704700BF6068004008B501E0FFF7EAFF5A
:4046C000FFF7D2FF10F0400FF8D108BD08B5134B1A7802F0F8021A701A7802F0FC021A70FFF7EAFF4FF40040FFF7DAFF4FF40040FFF7C0FF0020FFF7B1FFFFF7B5FF4FF4CB
:404700000040FFF7D3FF00F0DBF8054A137843F01003137000F0D8F808BD00BF716400409164004008B5054B1B7823B9FFF7CEFF0122024B1A70FFF789FF08BD5982FF1F08
:404740007222084B1A702022033B1A700622A3F25D131A70472210331A7000224F331A70704700BF8B65004010B500F0A9F804460A4A137843F020031370033A137843F0AA
:4047800010031370FE3A137843F01003137000F07FF8204600F098F810BD00BF9B65004008B5054B1B7823B9FFF7CAFF0122024B1A70FFF7D9FF08BD5A82FF1F024B18781F
:4047C00000F07F00704700BF68650040084B1B78DBB213F0200F06D0064A1078C0B213F01E0F02D17047002070470020704700BF686500404B650040034B1B7813F0040FE7
:40480000FAD1024B187070476A6400404A64004038B5074B1B782BB938BDFFF7EDFF0134A4B201E005460024285D0028F5D138BD5A82FF1F014B1B685864704708ED00E044
:404840004001C0B2014B1870704700BF01E400E00222014B1A60704700E100E00222014B1A60704780E100E010B50446FFF7F6FF2046FFF7DFFF0720FFF7E2FFFFF7E8FF23
:4048800010BD00BF0222014B1A60704780E200E0054A137843F0200313701032137843F020031370704700BFA2430040000000000230800803D000BF01380046FCD1704746
:4048C000EFF3108072B6704780F31088704700BF81F0004102E000BF83F0004330B54FEA41044FEA430594EA050F08BF90EA020F1FBF54EA000C55EA020C7FEA645C7FEA0E
:40490000655C00F0E2804FEA5454D4EB5555B8BF6D420CDD2C4480EA020281EA030382EA000083EA010180EA020281EA0303362D88BF30BD11F0004F4FEA01314FF4801CD1
:404940004CEA113102D0404261EB410113F0004F4FEA03334CEA133302D0524263EB430394EA050F00F0A780A4F10104D5F1200E0DDB02FA0EFC22FA05F2801841F10001A3
:4049800003FA0EF2801843FA05F359410EE0A5F120050EF1200E012A03FA0EFC28BF4CF0020C43FA05F3C01851EBE37101F0004507D54FF0000EDCF1000C7EEB00006EEBC3
:4049C0000101B1F5801F1BD3B1F5001F0CD349085FEA30004FEA3C0C04F101044FEA445212F5800F80F09A80BCF1004F08BF5FEA500C50F1000041EB045141EA050130BD62
:404A00005FEA4C0C404141EB010111F4801FA4F10104E9D191F0000F04BF01460020B1FA81F308BF2033A3F10B03B3F120020CDA0C3208DD02F1140CC2F10C0201FA0CF0FF
:404A400021FA02F10CE002F11402D8BFC2F1200C01FA02F120FA0CFCDCBF41EA0C019040E41AA2BF01EB0451294330BD6FEA04041F3C1CDA0C340EDC04F11404C4F1200251
:404A800020FA04F001FA02F340EA030021FA04F345EA030130BDC4F10C04C4F1200220FA02F001FA04F340EA0300294630BD21FA04F0294630BD94F0000F83F4801306BFA9
:404AC00081F480110134013D4EE77FEA645C18BF7FEA655C29D094EA050F08BF90EA020F05D054EA000C04BF1946104630BD91EA030F1EBF0021002030BD5FEA545C05D116
:404B00004000494128BF41F0004130BD14F580043CBF01F5801130BD01F0004545F0FE4141F470014FF0000030BD7FEA645C1ABF194610467FEA655C1CBF0B46024650EA5E
:404B4000013406BF52EA033591EA030F41F4002130BD00BF90F0000F04BF0021704730B54FF4806404F132044FF000054FF0000150E700BF90F0000F04BF0021704730B54E
:404B80004FF4806404F1320410F0004548BF40424FF000013EE700BF42004FEAE2014FEA31014FEA02701FBF12F07F4393F07F4F81F06051704792F0000F14BF93F07F4FBC
:404BC000704730B54FF4607401F0004521F0004120E700BF50EA010208BF704730B54FF000050AE050EA010208BF704730B511F0004502D5404261EB41014FF4806404F1FD
:404C000032045FEA915C3FF4DCAE4FF003025FEADC0C18BF03325FEADC0C18BF033202EBDC02C2F1200300FA03FC20FA02F001FA03FE40EA0E0021FA02F11444C1E600BFE7
:404C400070B54FF0FF0C4CF4E06C1CEA11541DBF1CEA135594EA0C0F95EA0C0F00F0DEF82C4481EA030621EA4C5123EA4C5350EA013518BF52EA033541F4801143F4801308
:404C800038D0A0FB02CE4FF00005E1FB02E506F00042E0FB03E54FF00006E1FB03569CF0000F18BF4EF0010EA4F1FF04B6F5007F64F5407404D25FEA4E0E6D4146EB060611
:404CC00042EAC62141EA55514FEAC52040EA5E504FEACE2EB4F1FD0C88BFBCF5E06F1ED8BEF1004F08BF5FEA500E50F1000041EB045170BD06F0004646EA010140EA0200C5
:404D000081EA0301B4EB5C04C2BFD4EB0C0541EA045170BD41F480114FF0000E013C00F3AB8014F1360FDEBF002001F0004170BDC4F10004203C35DA0C341BDC04F11404CB
:404D4000C4F1200500FA05F320FA04F001FA05F240EA020001F0004221F0004110EBD37021FA04F642EB06015EEA430E08BF20EAD37070BDC4F10C04C4F1200500FA04F3C5
:404D800020FA05F001FA04F240EA020001F0004110EBD37041F100015EEA430E08BF20EAD37070BDC4F1200500FA05F24EEA020E20FA04F301FA05F243EA020321FA04F0F3
:404DC00001F0004121FA04F220EA020000EBD3705EEA430E08BF20EAD37070BD94F0000F0FD101F00046400041EB010111F4801F08BF013CF7D041EA060195F0000F18BF38
:404E0000704703F00046520043EB030313F4801F08BF013DF7D043EA0603704794EA0C0F0CEA135518BF95EA0C0F0CD050EA410618BF52EA4306D1D181EA030101F0004139
:404E40004FF0000070BD50EA410606BF1046194652EA430619D094EA0C0F02D150EA013613D195EA0C0F05D152EA03361CBF104619460AD181EA030101F0004141F0FE413B
:404E800041F470014FF0000070BD41F0FE4141F4780170BD70B54FF0FF0C4CF4E06C1CEA11541DBF1CEA135594EA0C0F95EA0C0F00F0A7F8A4EB050481EA030E52EA03359B
:404EC0004FEA013100F088804FEA03334FF0805545EA131343EA12634FEA022245EA111545EA10654FEA00260EF000419D4208BF964244F1FD0404F5407402D25B084FEA10
:404F00003202B61A65EB03055B084FEA32024FF480104FF4002CB6EB020E75EB030E22BFB61A754640EA0C005B084FEA3202B6EB020E75EB030E22BFB61A754640EA5C005B
:404F40005B084FEA3202B6EB020E75EB030E22BFB61A754640EA9C005B084FEA3202B6EB020E75EB030E22BFB61A754640EADC0055EA060E18D04FEA051545EA16754FEA28
:404F800006164FEAC30343EA52734FEAC2025FEA1C1CC0D111F4801F0BD141EA00014FF000004FF0004CB6E711F4801F04BF01430020B4F1FD0C88BFBCF5E06F3FF6AFAE70
:404FC000B5EB030C04BFB6EB020C5FEA500C50F1000041EB045170BD0EF0004E4EEA113114EB5C04C2BFD4EB0C0541EA045170BD41F480114FF0000E013C90E645EA060ED0
:405000008DE60CEA135594EA0C0F08BF95EA0C0F3FF43BAF94EA0C0F0AD150EA01347FF434AF95EA0C0F7FF425AF104619462CE795EA0C0F06D152EA03353FF4FDAE10468D
:40504000194622E750EA410618BF52EA43067FF4C5AE50EA41047FF40DAF52EA43057FF4EBAE12E74FEA4102B2F1E04324BFB3F5001CDCF1FE5C0DD901F0004C4FEAC002A0
:405080004CEA5070B2F1004F40EB830008BF20F00100704711F0804F21D113F13872BCBF01F00040704741F480114FEA5252C2F11802C2F1200C10FA0CF320FA02F018BFBD
:4050C00040F001004FEAC1234FEAD32303FA0CFC40EA0C0023FA02F34FEA4303CCE77FEA625307D150EA01331EBF4FF0FE4040F44000704701F0004040F0FE4040F40000F8
:40510000704700BF80F0004002E000BF81F0004142001FBF5FEA410392EA030F7FEA226C7FEA236C6AD04FEA1262D2EB1363C1BFD218414048404140B8BF5B42192B88BF1F
:40514000704710F0004F40F4000020F07F4018BF404211F0004F41F4000121F07F4118BF494292EA030F3FD0A2F1010241FA03FC10EB0C00C3F1200301FA03F100F00043A7
:4051800002D5494260EB4000B0F5000F13D3B0F1807F06D340084FEA310102F10102FE2A51D2B1F1004F40EBC25008BF20F0010040EA03007047490040EB000010F4000F8A
:4051C000A2F10102EDD1B0FA80FCACF1080CB2EB0C0200FA0CF0AABF00EBC25052421843BCBFD0401843704792F0000F81F4000106BF80F400000132013BB5E74FEA410329
:405200007FEA226C18BF7FEA236C21D092EA030F04D092F0000F08BF0846704790EA010F1CBF0020704712F07F4F04D1400028BF40F00040704712F100723CBF00F5000064
:40524000704700F0004343F0FE4040F4000070477FEA226216BF08467FEA23630146420206BF5FEA412390EA010F40F4800070474FF0000304E000BF10F0004348BF404246
:405280005FEA000C08BF704743F0964301464FF000001CE050EA010208BF70474FF000030AE000BF50EA010208BF704711F0004302D5404261EB41015FEA010C02BF844620
:4052C0000146002043F0B64308BFA3F18053A3F50003BCFA8CF2083AA3EBC25310DB01FA02FC634400FA02FCC2F12002BCF1004F20FA02F243EB020008BF20F00100704718
:4053000002F1200201FA02FCC2F1200250EA4C0021FA02F243EB020008BF20EADC7070474FF0FF0C1CEAD0521EBF1CEAD15392EA0C0F93EA0C0F6FD01A4480EA010C4002F3
:4053400018BF5FEA41211ED04FF0006343EA501043EA5111A0FB01310CF00040B1F5000F3EBF490041EAD3715B0040EA010062F17F02FD2A1DD8B3F1004F40EBC25008BF1F
:4053800020F00100704790F0000F0CF0004C08BF49024CEA502040EA51207F3AC2BFD2F1FF0340EAC250704740F400004FF00003013A5DDC12F1190FDCBF00F00040704772
:4053C000C2F10002410021FA02F1C2F1200200FA02FC5FEA310040F1000053EA4C0308BF20EADC70704792F0000F00F0004C02BF400010F4000F013AF9D040EA0C0093F033
:40540000000F01F0004C02BF490011F4000F013BF9D041EA0C018FE70CEAD15392EA0C0F18BF93EA0C0F0AD030F0004C18BF31F0004CD8D180EA010000F00040704790F02A
:40544000000F17BF90F0004F084691F0000F91F0004F14D092EA0C0F01D142020FD193EA0C0F03D14B0218BF084608D180EA010000F0004040F0FE4040F40000704740F07E
:40548000FE4040F4400070474FF0FF0C1CEAD0521EBF1CEAD15392EA0C0F93EA0C0F69D0A2EB030280EA010C49024FEA402037D04FF0805343EA111143EA10130CF00040C1
:4054C0008B4238BF5B0042F17D024FF4000C8B4224BF5B1A40EA0C00B3EB510F24BFA3EB510340EA5C00B3EB910F24BFA3EB910340EA9C00B3EBD10F24BFA3EBD10340EAF2
:40550000DC001B0118BF5FEA1C1CE0D1FD2A3FF650AF8B4240EBC25008BF20F0010070470CF0004C4CEA50207F32C2BFD2F1FF0340EAC250704740F400004FF00003013AED
:4055400037E792F0000F00F0004C02BF400010F4000F013AF9D040EA0C0093F0000F01F0004C02BF490011F4000F013BF9D041EA0C0195E70CEAD15392EA0C0F08D142027E
:405580007FF47DAF93EA0C0F7FF470AF084676E793EA0C0F04D14B023FF44CAF08466EE730F0004C18BF31F0004CCAD130F000427FF45CAF31F000437FF43CAF5FE700BFFA
:4055C0004FF0FF3C06E000BF4FF0010C02E000BF4FF0010C4DF804CD4FEA40024FEA41037FEA226C18BF7FEA236C11D001B052EA530C18BF90EA010F58BFB2EB030088BFF3
:40560000C81738BF6FEAE17018BF40F0010070477FEA226C02D15FEA402C05D17FEA236CE4D15FEA412CE1D05DF8040B704700BF844608466146FFE70FB5FFF7C9FF002899
:4056400048BF10F1000F0FBD4DF808EDFFF7F4FF0CBF012000205DF808FB00BF4DF808EDFFF7EAFF34BF012000205DF808FB00BF4DF808EDFFF7E0FF94BF012000205DF8A5
:4056800008FB00BF4DF808EDFFF7D2FF94BF012000205DF808FB00BF4DF808EDFFF7C8FF34BF012000205DF808FB00BF42000ED2B2F1FE4F0BD34FF09E03B3EB126209D47B
:4056C0004FEA002343F0004323FA02F070474FF00000704712F1610F01D1420202D14FF0FF3070474FF00000704700BF00210A2200F056B9014B1868704700BF8081FF1F39
:405700000E4B70B51E460E4C0025E41AA410A54204D056F8253098470135F8E701F0A6F8084B094C1E46E41AA4100025A54204D056F8253098470135F8E770BD7868000033
:4057400078680000786800008068000010B5431E0A44914204D011F8014B03F8014FF8E710BD03460244934202D003F8011BFAE7704700000EB400B54FF402719CB0ADF817
:4057800014106FF00041049107914FF6FF711DABADF81610084953F8042B02900690086802A9019300F064F9029B00221A701CB05DF804EB03B070478081FF1FC9B203461B
:4057C00010F8012B1AB18A42F9D11846704700290CBF18460020704710F8012B11F8013B012A28BF9A42F7D0D01A7047034611F8012B03F8012B002AF9D17047034613F863
:40580000012B002AFBD1181A0138704770B5A2B1451E01396B7811F8014F6E1CA34206D16FF00104641B1444E04202D11C46181B70BD3546002BEDD1F8E7104670BD03468C
:4058400010B532B111F8014B013A03F8014B002CF7D11A44934203D0002103F8011BF9E710BD30B5037823B90B78002B18BF002030BD03461A7801303AB100228C5C34B116
:405880009D5CA542F5D10132F8E7104630BD184630BD00002DE9F0470F46404CD4F800903D4615F801EB09EB0E04667806F0080404F0FF060CB12F46F2E774462D2C03D1CB
:4058C000BD1C7C78012603E02B2C04BF7C78BD1C13B1102B0AD15AE0302C56D12C7804F0DF04582C4CD16C7810230235002E14BF4FF000486FF00048B8FBF3FA0027BE46EF
:4059000003FB1A8809EB040C9CF801C01CF0040F01D0303C0BE01CF0030C1BD0BCF1010F0CBF4FF0370C4FF0570CCCEB04049C4210DAB7F1FF3F0AD0D64506D801D14445DA
:4059400003DC03FB0E4E012701E04FF0FF3715F8014BD7E77C1C73460AD1002E4FF0220114BF4FF000436FF0004301602AB911E00EB1CEF100036AB107B1691E116009E03C
:405980003024002BB2D10823B0E70A23AEE7302CACD1A3E71846BDE8F08700BF8481FF1F30B505460C461346034A294610682246BDE83040FFF76EBF8081FF1F2DE9F04787
:4059C0008E688246B3420C469046994640D38A8912F4906F3AD02568096902236F1A656905EB450595FBF3F57B1C4B449D4238BF1D4653050FD5294600F030FB064698B1D1
:405A000021693A46FFF7A2FEA38923F4906343F08003A38113E02A4600F076FB064670B95046216900F0D6FA0C23CAF80030A3894FF0FF3043F04003A381BDE8F0872661A5
:405A40003E4426604E466561ED1BA560B14500D24E4632462068414600F0A0FAA36800209B1BA36023681E442660BDE8F08700002DE9F0439DB003938B8906461C060D46D6
:405A800090460CD50B6953B9402100F0E7FA2860286110B90C233360CCE040236B610023099320238DF8293030238DF82A3043461C4613F8012B1AB9B4EB08090FD002E08E
:405AC000252AF5D1F8E73046294642464B46FFF775FF013000F0A980099B4B4409932378002B00F0A28000234FF0FF3204930793059206938DF853301A9304F10108444628
:405B0000DFF8489121784846052200F039FA08F10108049B30B1C9EB00000122824013430493ECE7D80644BF20228DF85320190744BF2B228DF8532022782A2A02D0079986
:405B400023460EE0039A0134111D12680391002ABBBF524243F0020307920792B8BF04930AE01C4622780133303A092A03D80A2000FB0121F5E7079123782E2B1AD1637809
:405B80002A2B0AD1039B02341A1D1B680392002BB8BF4FF0FF3305930CE0611C00220C4623780131303B092B03D80A2000FB0232F5E70592DFF8988021784046032200F0D4
:405BC000DFF938B1049AC8EB00004023834013430493013421781A48062204F101088DF8281000F0CDF988B1164B33B9039B073323F007030833039313E003AB00933046C1
:405C000004A92A46104BAFF3008007E003AB0093304604A92A460C4B00F092F8421C074603D0099B3B44099341E7AB895B0601D4099801E04FF0FF301DB0BDE8F08300BFDB
:405C40004168000000000000BD590000376800003D6800002DE9F84391461F468A680B6906469342B8BF1346C9F8003091F843200C46DDF8208012B10133C9F80030236826
:405C8000990642BFD9F800300233C9F80030256815F006051CD094F843302268003318BF012392061FD5E118302081F843005A1C94F845102244023382F8431013E0304624
:405CC000394604F119020123C047013007D00135E368D9F800209B1A9D42F0DBDBE74FF0FF30BDE8F8833046394604F14302C0470130F4D02268D9F80050E36802F00602A6
:405D0000042A08BF5D1B2269A3680CBF25EAE57500259342C4BF9B1AED184FF00009A9450ADA3046394604F11A020123C0470130D5D009F10109F2E70020BDE8F8830000B7
:405D40002DE9FF410C461746227E98466E2A06460A9B01F1430100F0B08012D8632A23D00AD8002A00F0BD80582A40F0CC8084F84520DFF804E257E0642A1ED0692A1CD050
:405D8000C1E0732A00F0B18009D86F2A2ED0702A40F0B980226842F0200222603FE0752A24D0782A3BD0AEE01A6804F14205111D1960136884F84230A9E020681A6810F05B
:405DC000800F02D0101D186008E010F0400F02F10400186002D0B2F9003000E01368002B3EDA2D225B4284F8432039E020681A6810F0800F02D0101D186007E010F0400F82
:405E000002F10400186001D0138800E01368227EDFF864E16F2A0CBF08220A221CE07822DFF858E184F845202268186812F0800F00F104051D6003D1550601D5038800E0AD
:405E40000368D00744BF42F0200222601BB9226822F0200222601022002084F8430002E0DFF814E10A226568002DA8BF2068A560A4BF20F00400206003B965B10D46B3FB50
:405E8000F2F002FB10331EF8033005F8013D03460028F4D100E00D46082A0BD12368DA0708D5236962689A42DEBF302305F8013C05F1FF35491B21612EE025681A6815F0EE
:405EC000800F606903D0151D1D60136808E015F0400F02F104051D60136801D0188000E01860002323610D4616E01A68111D1960156800212846626800F042F808B1401B2F
:405F00006060636804E004F1420584F8422001232361002384F84330CDF800803046214603AA3B46FFF796FE013002D14FF0FF301FE0304639462A462369C0470130F5D0E5
:405F400023689B0705D4E068039B9842B8BF18460FE00025E368039A9B1A9D42F3DA3046394604F119020123C0470130DED00135F0E704B0BDE8F0814868000059680000D2
:405F800010B5C9B202449042034605D01C7801308C42F8D1184610BD002010BD814210B501EB020301D3421E0BE09842FBD28118D21AD34204D013F8014D01F8014DF8E7CB
:405FC00010BD994204D011F8014B02F8014FF8E710BD000030B500293CD051F8042C0B1F1D49002AB8BF9B180A680C4612B95A600B6030BD93420DD219685818904201BF8B
:406000005A5852181A60426823605A6030BD994203D80A4651680029F9D1146815199D420AD11B682344D0188842136012D10868034413604B680CE002D90C23036030BDCB
:406040001C681819884201BF08684968001918605960536030BD00BF6082FF1F70B5CC1C24F0030408340C2C38BF0C24002C064603DA0C233360002070BD8C42F9D3204AEC
:40608000136810461946A1B10A68121B0ED40B2A03D90A608B188C501FE08B420BBF5A684A6802605A6018BF0B4616E00B464968E9E7144D2B681BB9304600F04BF82860D4
:4060C0003046214600F046F8421C0346D1D0C51C25F0030585420AD11C6003F10B001A1D20F00700821A0AD05142995070BD3046E91A00F02FF80130BBD02B46ECE770BD08
:406100006082FF1F5C82FF1FF8B5074615460E4621B91146BDE8F840FFF7A0BF1AB9FFF759FF2846F8BD00F025F8A8420ED238462946FFF793FF044650B131462A46FFF79F
:4061400005FB38463146FFF745FF01E03046F8BD2046F8BD38B5064C0023054608462360FCF756FF431C02D1236803B12B6038BDF882FF1F51F8040C0028BEBF091851F812
:40618000043CC018043870471000000000000000017A5200027C0E011B0C0D00100000001800000034F6FFFF1400000000000000000000002B4950442C302C323A000000D6
:4061C0005374617274696E67206861726477617265207065726970686572616C732E2E2E0D0A0000446F6E652E20496E6974204553503037206D6F64756C652E2E2E0D0A67
:4062000000000000446F6E652E20496E6974204C534D333033206D6F64756C652E2E2E0D0A000000446F6E652E2020496E697420475053206D6F64756C652E2E2E0D0A0034
:40624000446F6E652E20426F6F742073657175656E636520636F6D706C6574652E0D0A00556E6B6E6F776E20636F6D6D616E643A200000004F6E626F617264204C4544205C
:40628000656E61626C65642E0D0A00004F6E626F617264204C45442064697361626C65642E0D0A0041542B43495053454E443D302C31360D0A00000045535030373E2043AA
:4062C0004F4E4E4543540D0A00000000436F6E6E656374696F6E20302065737461626C69736865642E0D0A00436F6E6E656374696F6E2030207465726D696E617465642E98
:406300000D0A000044756D70696E672E2E2E0D0A000000002020636F6D6D616E642E7261773A20202020202020202020202000000D0A202045535030375F446174615B5D49
:406340003A2020202020202020202020000000000D0A20204C534D3330332048656164696E673A20202020202020202000000000256400000D0A20204C534D3330332058A6
:406380002D4D61676E69747564653A2020202020000000000D0A20204C534D33303320592D4D61676E69747564653A2020202020000000000D0A20204C6566742044656333
:4063C0006F6465723A202020202020202020202000000000256C64000D0A20205269676874204465636F6465723A20202020202020202020000000000D0A20204553503050
:40640000375F436F6E6E65637465643A2020202020202020200000000D0A202045535030375F52656164793A202020202020202020202020200000000D0A2020726164690E
:406440006F4163746976654C6566743A2020202020202020200000000D0A2020726164696F41637469766552696768743A2020202020202020000000436F6E6E656374693F
:406480006F6E2030206661696C65642E0D0A0000536F6674776172652072657365742063616C6C65642E0D0A0000000044726F7070696E6720746F20626F6F746C6F6164D3
:4064C00065722E2E2E0D0A0041542B43495053454E443D302C33340D0A00000045535030373E200041542B43495053454E443D302C31320D0A00000045535030373E204EC6
:40650000414B0D0A0000000041542B43495053454E443D302C31330D0A00000025303464000000003037350041542B5253540D0A0000000041540D0A0000000041544530CF
:406540000D0A000041542B4349504D4F44453D300D0A000041542B4349504D55583D310D0A00000041542B43575341503D22344453686F6F742050726F746F74797065226A
:406580002C22686877776775616B222C312C332C342C300D0A00000041542B4349505345525645523D312C38300D0A002B4950442C0000004C4544204F4E00004C4544202F
:4065C0004F4646004F4B000072656164790000003E200000526563760000000053454E44204F4B004552524F52000000302C434F4E4E454354000000302C434C4F53454439
:406600000000000044554D5000000000302C434F4E4E454354204641494C000052455345540000004C46545F465744004C46545F42434B005247545F465744005247545F4B
:4066400042434B00414C4C5F46574400414C4C5F42434B00524F5441544500004D4F564500000000434F4F524400000048454144494E47004E504F4C5947000053544F509D
:406680000000000045535030373E2041434B0D0A00000000303030303030303000000000244750524D43000024504D544B3232302C3530302A32420D0A00000024504D54AB
:4066C0004B3331342C302C312C302C302C302C302C302C302C302C302C302C302C302C302C302C302C302C302C302A32390D0A00C84900401900004F00403000305100404C
:406700004000000001400010001401408006001B0140000100400140000A004C014000020050014020000000801A01401C150048800000004300002020202020202020208E
:406740002828282828202020202020202020202020202020202020881010101010101010101010101010100404040404040404040410101010101010414141414141010179
:406780000101010101010101010101010101010101011010101010104242424242420202020202020202020202020202020202020202101010102000000000000000000053
:4067C0000000000000000000000000000000000000000000000000000000000000000000000000000000000000000000000000000000000000000000000000000000000099
:4068000000000000000000000000000000000000000000000000000000000000000000000000000000000000000000000000000000000000000000232D302B2000686C4C6D
:406840000065666745464700303132333435363738394142434445460030313233343536373839616263646566000000F8B500BFF8BC08BC9E4670473D1B00008D3000007C
:40688000F8B500BFF8BC08BC9E467047191B0000A06800000881FF1F8000000078010000000000000083FF1F0000E02EC05D00001800000000366E010000000000000000F4
:4068C00000000000000000000000000000000000000000000000000034670000000000000000000000000000000000000000000000000000000000000000000000000000FD
:406900000000000000000000000000000000000000000000000000002081FF1F366700000000000000000000000000000000000000000000000000000000000000000000FB
:406940000000000000000000000000000000000000000000000000000000000000000000000000000000000000000000000000000000000000000000000000000000000017
:4069800000000000000000000000000000000000000000000000000000000000000000000000000000000000000000000000000000000000000000000000000000000000D7
:4069C0000000000000000000000000000000000000000000000000000000000000000000000000000000000000000000000000000000000000000000000000000000000097
:406A00000000000000000000000000000000000000000000000000000000000000000000000000000000000000000000000000000000000000000000000000000000000056
:020000040003F7
:40FFC0008B111B00001A000000009400000000000000000000000000000000000000000000000000000000000000000000000000000000000000000000000000000000009C
:0200000480007A
:4000000000000000000000000000000000000000000000000000000000000000000000000000000000000000000000000000000000000000000000000000000000000000C0
:400040000000000000000000000000000000000000000000000000000000000000000000000000000000000000000000000000000000000000000000000000000000000080
:400080000000000000000000000000000000000000000000000000000000000000000000000000000000000000000000000000000000000000000000000000000000000040
:4000C0000000000000000000000000000000000000000000000000000000000000000000000000000000000000000000000000000000000000000000000000000000000000
:4001000000000000000000000000000000000000000000000000000000000000000000000000000000000000000000000000000000000000000000000000000000000000BF
:40014000000000000000000000000000000000000000000000000000000000000000000000000000000000000000000000000000000000000000000000000000000000007F
:40018000000000000000000000000000000000000000000000000000000000000000000000000000000000000000000000000000000000000000000000000000000000003F
:4001C00000000000000000000000000000000000000000000000000000000000000000000000000000000000000000000000000000000000000000000000000000000000FF
:4002000000000000000000000000000000000000000000000000000000000000000000000000000000000000000000000000000000000000000000000000000000000000BE
:40024000000000000000000000000000000000000000000000000000000000000000000000000000000000000000000000000000000000000000000000000000000000007E
:40028000000000000000000000000000000000000000000000000000000000000000000000000000000000000000000000000000000000000000000000000000000000003E
:4002C00000000000000000000000000000000000000000000000000000000000000000000000000000000000000000000000000000000000000000000000000000000000FE
:4003000000000000000000000000000000000000000000000000000000000000000000000000000000000000000000000000000000000000000000000000000000000000BD
:400340000000000000000000000000000000000000000000000000000000000000000000084F0040085200400A640040056500406A0001403F010140610201404D03014093
:400380005E0401404F05014063060140510701406A0801405C090140660A0140500B0140660C0140560D01405E0E01403F0F01404E14014044150140651601403C170140FC
:4003C0004A1801404B1901400E1A01404C1B014007400140184101401B4201401743014010450140094601400647014013480140074901401F4C01400A4D0140085001408B
:400400000351014001400A4B0D40161B1940224B25402E4B00420166040D080509230CD0102A1129816F85388672870F89388A0F8B0F8D0F8E0F8F0F840F876F88388972E2
:400440008B720107070109120B0C0D080F10150319081B501D081F302506270129062D052F02312033073518374038203B203E104021410649FF4AFF4BFF4DA04F01501894
:40048000580459045A045F016040628064406540668068406A806C406D206E8085E78718893C8BC28D1C8FE19008940195089B049C039D049E0CA003A1FFA763A918AD1007
:4004C000B004B138B202B380B408B51FB601B758B888B908BBA0BE50C034C106C50CC642C73EC83DC9FFCAFFCBFFCDAFCE07CF01D018D280D40FD804D904DA04DB04DC30FF
:40050000DF05E040E280E440E540E680E840EA80EC40ED20EE800D080E400F02164018081C101E452040211422402550276028292C402D802E202F1031083260330836804E
:400540003714384239283DA23E09400442014501461048084C084F045410564457015C805E065F10600462106604670476807F08832086408710889089108C05C2B0C41060
:40058000CAFECC7ECE7FD0CCD224D6F0D860DE20E210E604020405F8060809F80A081190134A1528160417531C011D401FA422012603300431183208330134013506360273
:4005C00037E03E153F10402641044201440346C0470E481849FF4AFF4BFF4C624DA04EF04F41500C580459045A045B045C305D035F016640670269106A306B106D106E1058
:400600006F12811484018580861689808E038F20901C918092039420956C971198019A0E9B039D5C9F02A570A608A70CA910AD09AE1CAF10B00FB160B380B41AB51FB62024
:40064000B902BA22BE40BF01D283D804D904DB04DC33DD10DF0100400108060407600AA40E010F2010011210150816801A8E1C041E011F052101221023102642271828214E
:400680002A1032543302364638F83A023B843C103F044440460847484F1056045710673069506F0973407A407B808242870189088A018F089128940497209AC09B609C481E
:4006C0009D809E289F14A150A320A508A6A1A808AC20B001B410C075C2AEC435CA0ECCDFCE6FD0F0D220E230E401E604EA01EE0A0040028106C0070808800A400C0C0E3037
:400700000F0B163C181419021A281B012202280C29012A302B022C142E282F04300132023303343C350436C037083E403F444004464049FF4A074BFF4C404D204EF04F0524
:400740005008580459045A045C015D035F01604061A86240632084808573870C891C8B638C018D1F8E4A8F6091429521980399049A709D7FA163A280A404A678A763A80177
